{
    "_format": "hh-sol-artifact-1",
    "contractName": "First",
    "sourceName": "Contracts/first.sol",
    "abi": [
        {
            "inputs": [
                {
                    "internalType": "uint256",
                    "name": "_platformFeePercentage",
                    "type": "uint256"
                },
                {
                    "internalType": "address",
                    "name": "_intermediateWalletAddress",
                    "type": "address"
                }
            ],
            "stateMutability": "nonpayable",
            "type": "constructor"
        },
        {
            "anonymous": false,
            "inputs": [
                {
                    "indexed": true,
                    "internalType": "address",
                    "name": "owner",
                    "type": "address"
                },
                {
                    "indexed": true,
                    "internalType": "address",
                    "name": "approved",
                    "type": "address"
                },
                {
                    "indexed": true,
                    "internalType": "uint256",
                    "name": "tokenId",
                    "type": "uint256"
                }
            ],
            "name": "Approval",
            "type": "event"
        },
        {
            "anonymous": false,
            "inputs": [
                {
                    "indexed": true,
                    "internalType": "address",
                    "name": "owner",
                    "type": "address"
                },
                {
                    "indexed": true,
                    "internalType": "address",
                    "name": "operator",
                    "type": "address"
                },
                {
                    "indexed": false,
                    "internalType": "bool",
                    "name": "approved",
                    "type": "bool"
                }
            ],
            "name": "ApprovalForAll",
            "type": "event"
        },
        {
            "anonymous": false,
            "inputs": [
                {
                    "indexed": true,
                    "internalType": "uint256",
                    "name": "nftId",
                    "type": "uint256"
                },
                {
                    "indexed": false,
                    "internalType": "address",
                    "name": "winner",
                    "type": "address"
                },
                {
                    "indexed": false,
                    "internalType": "uint256",
                    "name": "amount",
                    "type": "uint256"
                }
            ],
            "name": "AuctionEnded",
            "type": "event"
        },
        {
            "anonymous": false,
            "inputs": [
                {
                    "indexed": true,
                    "internalType": "uint256",
                    "name": "nftId",
                    "type": "uint256"
                },
                {
                    "indexed": false,
                    "internalType": "uint256",
                    "name": "minBid",
                    "type": "uint256"
                },
                {
                    "indexed": false,
                    "internalType": "uint256",
                    "name": "duration",
                    "type": "uint256"
                }
            ],
            "name": "AuctionStarted",
            "type": "event"
        },
        {
            "anonymous": false,
            "inputs": [
                {
                    "indexed": false,
                    "internalType": "uint256",
                    "name": "_fromTokenId",
                    "type": "uint256"
                },
                {
                    "indexed": false,
                    "internalType": "uint256",
                    "name": "_toTokenId",
                    "type": "uint256"
                }
            ],
            "name": "BatchMetadataUpdate",
            "type": "event"
        },
        {
            "anonymous": false,
            "inputs": [
                {
                    "indexed": true,
                    "internalType": "uint256",
                    "name": "nftId",
                    "type": "uint256"
                },
                {
                    "indexed": false,
                    "internalType": "address",
                    "name": "bidder",
                    "type": "address"
                },
                {
                    "indexed": false,
                    "internalType": "uint256",
                    "name": "amount",
                    "type": "uint256"
                }
            ],
            "name": "BidPlaced",
            "type": "event"
        },
        {
            "anonymous": false,
            "inputs": [
                {
                    "indexed": false,
                    "internalType": "address",
                    "name": "withdrawer",
                    "type": "address"
                },
                {
                    "indexed": false,
                    "internalType": "uint256",
                    "name": "amount",
                    "type": "uint256"
                }
            ],
            "name": "FundsWithdrawn",
            "type": "event"
        },
        {
            "anonymous": false,
            "inputs": [
                {
                    "indexed": false,
                    "internalType": "uint256",
                    "name": "_tokenId",
                    "type": "uint256"
                }
            ],
            "name": "MetadataUpdate",
            "type": "event"
        },
        {
            "anonymous": false,
            "inputs": [
                {
                    "indexed": true,
                    "internalType": "address",
                    "name": "owner",
                    "type": "address"
                },
                {
                    "indexed": true,
                    "internalType": "uint256",
                    "name": "nftId",
                    "type": "uint256"
                }
            ],
            "name": "NFTMinted",
            "type": "event"
        },
        {
            "anonymous": false,
            "inputs": [
                {
                    "indexed": true,
                    "internalType": "address",
                    "name": "from",
                    "type": "address"
                },
                {
                    "indexed": true,
                    "internalType": "address",
                    "name": "to",
                    "type": "address"
                },
                {
                    "indexed": true,
                    "internalType": "uint256",
                    "name": "tokenId",
                    "type": "uint256"
                }
            ],
            "name": "Transfer",
            "type": "event"
        },
        {
            "inputs": [
                {
                    "internalType": "address",
                    "name": "to",
                    "type": "address"
                },
                {
                    "internalType": "uint256",
                    "name": "tokenId",
                    "type": "uint256"
                }
            ],
            "name": "approve",
            "outputs": [],
            "stateMutability": "nonpayable",
            "type": "function"
        },
        {
            "inputs": [
                {
                    "internalType": "uint256",
                    "name": "nftId",
                    "type": "uint256"
                }
            ],
            "name": "approveNFT",
            "outputs": [],
            "stateMutability": "nonpayable",
            "type": "function"
        },
        {
            "inputs": [
                {
                    "internalType": "address",
                    "name": "owner",
                    "type": "address"
                }
            ],
            "name": "balanceOf",
            "outputs": [
                {
                    "internalType": "uint256",
                    "name": "",
                    "type": "uint256"
                }
            ],
            "stateMutability": "view",
            "type": "function"
        },
        {
            "inputs": [
                {
                    "internalType": "uint256",
                    "name": "nftId",
                    "type": "uint256"
                }
            ],
            "name": "bid",
            "outputs": [],
            "stateMutability": "payable",
            "type": "function"
        },
        {
            "inputs": [
                {
                    "internalType": "uint256",
                    "name": "nftId",
                    "type": "uint256"
                },
                {
                    "internalType": "uint256",
                    "name": "shares",
                    "type": "uint256"
                }
            ],
            "name": "buyNFT",
            "outputs": [],
            "stateMutability": "payable",
            "type": "function"
        },
        {
            "inputs": [
                {
                    "internalType": "uint256",
                    "name": "newFee",
                    "type": "uint256"
                }
            ],
            "name": "changePlatformFee",
            "outputs": [],
            "stateMutability": "nonpayable",
            "type": "function"
        },
        {
            "inputs": [
                {
                    "internalType": "address",
                    "name": "_newOwner",
                    "type": "address"
                }
            ],
            "name": "changeScOwner",
            "outputs": [],
            "stateMutability": "nonpayable",
            "type": "function"
        },
        {
            "inputs": [
                {
                    "internalType": "uint256",
                    "name": "nftId",
                    "type": "uint256"
                }
            ],
            "name": "endAuction",
            "outputs": [],
            "stateMutability": "nonpayable",
            "type": "function"
        },
        {
            "inputs": [
                {
                    "internalType": "uint256",
                    "name": "tokenId",
                    "type": "uint256"
                }
            ],
            "name": "getApproved",
            "outputs": [
                {
                    "internalType": "address",
                    "name": "",
                    "type": "address"
                }
            ],
            "stateMutability": "view",
            "type": "function"
        },
        {
            "inputs": [],
            "name": "intermediateWallet",
            "outputs": [
                {
                    "internalType": "contract IIntermediateWallet",
                    "name": "",
                    "type": "address"
                }
            ],
            "stateMutability": "view",
            "type": "function"
        },
        {
            "inputs": [
                {
                    "internalType": "address",
                    "name": "owner",
                    "type": "address"
                },
                {
                    "internalType": "address",
                    "name": "operator",
                    "type": "address"
                }
            ],
            "name": "isApprovedForAll",
            "outputs": [
                {
                    "internalType": "bool",
                    "name": "",
                    "type": "bool"
                }
            ],
            "stateMutability": "view",
            "type": "function"
        },
        {
            "inputs": [
                {
                    "internalType": "uint256",
                    "name": "nftId",
                    "type": "uint256"
                },
                {
                    "internalType": "uint256",
                    "name": "newPrice",
                    "type": "uint256"
                },
                {
                    "internalType": "uint256",
                    "name": "newShares",
                    "type": "uint256"
                }
            ],
            "name": "listNFT",
            "outputs": [],
            "stateMutability": "nonpayable",
            "type": "function"
        },
        {
            "inputs": [
                {
                    "internalType": "string",
                    "name": "tokenURI",
                    "type": "string"
                },
                {
                    "internalType": "uint256",
                    "name": "price",
                    "type": "uint256"
                },
                {
                    "internalType": "uint256",
                    "name": "shares",
                    "type": "uint256"
                }
            ],
            "name": "mintNFT",
            "outputs": [],
            "stateMutability": "nonpayable",
            "type": "function"
        },
        {
            "inputs": [],
            "name": "name",
            "outputs": [
                {
                    "internalType": "string",
                    "name": "",
                    "type": "string"
                }
            ],
            "stateMutability": "view",
            "type": "function"
        },
        {
            "inputs": [
                {
                    "internalType": "uint256",
                    "name": "",
                    "type": "uint256"
                }
            ],
            "name": "nftApproval",
            "outputs": [
                {
                    "internalType": "bool",
                    "name": "",
                    "type": "bool"
                }
            ],
            "stateMutability": "view",
            "type": "function"
        },
        {
            "inputs": [
                {
                    "internalType": "uint256",
                    "name": "",
                    "type": "uint256"
                }
            ],
            "name": "nfts",
            "outputs": [
                {
                    "internalType": "uint256",
                    "name": "id",
                    "type": "uint256"
                },
                {
                    "internalType": "address payable",
                    "name": "creator",
                    "type": "address"
                },
                {
                    "internalType": "uint256",
                    "name": "price",
                    "type": "uint256"
                },
                {
                    "internalType": "uint256",
                    "name": "totalShares",
                    "type": "uint256"
                },
                {
                    "internalType": "bool",
                    "name": "onAuction",
                    "type": "bool"
                },
                {
                    "internalType": "uint256",
                    "name": "auctionEndTime",
                    "type": "uint256"
                },
                {
                    "internalType": "uint256",
                    "name": "highestBid",
                    "type": "uint256"
                },
                {
                    "internalType": "address",
                    "name": "highestBidder",
                    "type": "address"
                }
            ],
            "stateMutability": "view",
            "type": "function"
        },
        {
            "inputs": [
                {
                    "internalType": "uint256",
                    "name": "tokenId",
                    "type": "uint256"
                }
            ],
            "name": "ownerOf",
            "outputs": [
                {
                    "internalType": "address",
                    "name": "",
                    "type": "address"
                }
            ],
            "stateMutability": "view",
            "type": "function"
        },
        {
            "inputs": [
                {
                    "internalType": "uint256",
                    "name": "",
                    "type": "uint256"
                },
                {
                    "internalType": "address",
                    "name": "",
                    "type": "address"
                }
            ],
            "name": "pendingReturns",
            "outputs": [
                {
                    "internalType": "uint256",
                    "name": "",
                    "type": "uint256"
                }
            ],
            "stateMutability": "view",
            "type": "function"
        },
        {
            "inputs": [
                {
                    "internalType": "uint256",
                    "name": "nftId",
                    "type": "uint256"
                },
                {
                    "internalType": "address",
                    "name": "buyer",
                    "type": "address"
                }
            ],
            "name": "releaseFunds",
            "outputs": [],
            "stateMutability": "nonpayable",
            "type": "function"
        },
        {
            "inputs": [
                {
                    "internalType": "address",
                    "name": "user",
                    "type": "address"
                }
            ],
            "name": "removeWhitelistAddress",
            "outputs": [],
            "stateMutability": "nonpayable",
            "type": "function"
        },
        {
            "inputs": [
                {
                    "internalType": "address",
                    "name": "from",
                    "type": "address"
                },
                {
                    "internalType": "address",
                    "name": "to",
                    "type": "address"
                },
                {
                    "internalType": "uint256",
                    "name": "tokenId",
                    "type": "uint256"
                }
            ],
            "name": "safeTransferFrom",
            "outputs": [],
            "stateMutability": "nonpayable",
            "type": "function"
        },
        {
            "inputs": [
                {
                    "internalType": "address",
                    "name": "from",
                    "type": "address"
                },
                {
                    "internalType": "address",
                    "name": "to",
                    "type": "address"
                },
                {
                    "internalType": "uint256",
                    "name": "tokenId",
                    "type": "uint256"
                },
                {
                    "internalType": "bytes",
                    "name": "data",
                    "type": "bytes"
                }
            ],
            "name": "safeTransferFrom",
            "outputs": [],
            "stateMutability": "nonpayable",
            "type": "function"
        },
        {
            "inputs": [
                {
                    "internalType": "address",
                    "name": "operator",
                    "type": "address"
                },
                {
                    "internalType": "bool",
                    "name": "approved",
                    "type": "bool"
                }
            ],
            "name": "setApprovalForAll",
            "outputs": [],
            "stateMutability": "nonpayable",
            "type": "function"
        },
        {
            "inputs": [
                {
                    "internalType": "uint256",
                    "name": "nftId",
                    "type": "uint256"
                },
                {
                    "internalType": "uint256",
                    "name": "minBid",
                    "type": "uint256"
                },
                {
                    "internalType": "uint256",
                    "name": "duration",
                    "type": "uint256"
                }
            ],
            "name": "startAuction",
            "outputs": [],
            "stateMutability": "nonpayable",
            "type": "function"
        },
        {
            "inputs": [
                {
                    "internalType": "bytes4",
                    "name": "interfaceId",
                    "type": "bytes4"
                }
            ],
            "name": "supportsInterface",
            "outputs": [
                {
                    "internalType": "bool",
                    "name": "",
                    "type": "bool"
                }
            ],
            "stateMutability": "view",
            "type": "function"
        },
        {
            "inputs": [],
            "name": "symbol",
            "outputs": [
                {
                    "internalType": "string",
                    "name": "",
                    "type": "string"
                }
            ],
            "stateMutability": "view",
            "type": "function"
        },
        {
            "inputs": [
                {
                    "internalType": "uint256",
                    "name": "tokenId",
                    "type": "uint256"
                }
            ],
            "name": "tokenURI",
            "outputs": [
                {
                    "internalType": "string",
                    "name": "",
                    "type": "string"
                }
            ],
            "stateMutability": "view",
            "type": "function"
        },
        {
            "inputs": [],
            "name": "totalSupply",
            "outputs": [
                {
                    "internalType": "uint256",
                    "name": "",
                    "type": "uint256"
                }
            ],
            "stateMutability": "view",
            "type": "function"
        },
        {
            "inputs": [
                {
                    "internalType": "address",
                    "name": "from",
                    "type": "address"
                },
                {
                    "internalType": "address",
                    "name": "to",
                    "type": "address"
                },
                {
                    "internalType": "uint256",
                    "name": "tokenId",
                    "type": "uint256"
                }
            ],
            "name": "transferFrom",
            "outputs": [],
            "stateMutability": "nonpayable",
            "type": "function"
        },
        {
            "inputs": [
                {
                    "internalType": "address",
                    "name": "user",
                    "type": "address"
                }
            ],
            "name": "whitelistAddress",
            "outputs": [],
            "stateMutability": "nonpayable",
            "type": "function"
        },
        {
            "inputs": [
                {
                    "internalType": "address",
                    "name": "",
                    "type": "address"
                }
            ],
            "name": "whitelistedAddresses",
            "outputs": [
                {
                    "internalType": "bool",
                    "name": "",
                    "type": "bool"
                }
            ],
            "stateMutability": "view",
            "type": "function"
        },
        {
            "inputs": [
                {
                    "internalType": "uint256",
                    "name": "nftId",
                    "type": "uint256"
                }
            ],
            "name": "withdrawBid",
            "outputs": [],
            "stateMutability": "nonpayable",
            "type": "function"
        }
    ],
    "bytecode": "0x60806040523480156200001157600080fd5b5060405162002a4738038062002a47833981016040819052620000349162000183565b604080518082018252600e81526d494e47524553534445464937323160901b60208083019182528351808501909452600684526549444637323160d01b9084015281519192916200008891600091620000dd565b5080516200009e906001906020840190620000dd565b5050600160075550600a8054336001600160a01b031991821617909155600992909255600b80549092166001600160a01b0391909116179055620001fd565b828054620000eb90620001c0565b90600052602060002090601f0160209004810192826200010f57600085556200015a565b82601f106200012a57805160ff19168380011785556200015a565b828001600101855582156200015a579182015b828111156200015a5782518255916020019190600101906200013d565b50620001689291506200016c565b5090565b5b808211156200016857600081556001016200016d565b6000806040838503121562000196578182fd5b825160208401519092506001600160a01b0381168114620001b5578182fd5b809150509250929050565b600181811c90821680620001d557607f821691505b60208210811415620001f757634e487b7160e01b600052602260045260246000fd5b50919050565b61283a806200020d6000396000f3fe6080604052600436106101e35760003560e01c806370a0823111610102578063b0136c8d11610095578063c87b56dd11610064578063c87b56dd14610644578063d7a5791a14610664578063d9904afd14610684578063e985e9c5146106a457600080fd5b8063b0136c8d146105c4578063b7ecbaae146105e4578063b88d4fde14610604578063b9a2de3a1461062457600080fd5b806395d89b41116100d157806395d89b411461054f578063977922d214610564578063a22cb46514610584578063ad6ed71d146105a457600080fd5b806370a08231146104b7578063885fc503146104d75780638ddac1ef146104f757806391e078bb1461052f57600080fd5b80631d85bf031161017a57806342842e0e1161014957806342842e0e14610434578063454a2ab3146104545780636352211e146104675780636860a5851461048757600080fd5b80631d85bf031461032c57806323b872dd1461033f578063265aa6211461035f578063415665851461041457600080fd5b8063095ea7b3116101b6578063095ea7b3146102a75780630eaaf4c8146102c957806318160ddd146102e95780631af23a591461030c57600080fd5b806301ffc9a7146101e857806306c933d81461021d57806306fdde031461024d578063081812fc1461026f575b600080fd5b3480156101f457600080fd5b50610208610203366004612441565b6106ed565b60405190151581526020015b60405180910390f35b34801561022957600080fd5b506102086102383660046122de565b600f6020526000908152604090205460ff1681565b34801561025957600080fd5b50610262610718565b60405161021491906125f6565b34801561027b57600080fd5b5061028f61028a3660046124d8565b6107aa565b6040516001600160a01b039091168152602001610214565b3480156102b357600080fd5b506102c76102c2366004612418565b6107d1565b005b3480156102d557600080fd5b506102c76102e43660046124d8565b6108ec565b3480156102f557600080fd5b506102fe6109e0565b604051908152602001610214565b34801561031857600080fd5b506102c76103273660046124f0565b6109f0565b6102c761033a366004612512565b610d17565b34801561034b57600080fd5b506102c761035a36600461232a565b610e0b565b34801561036b57600080fd5b506103ce61037a3660046124d8565b600c602052600090815260409020805460018201546002830154600384015460058501546006860154600787015460089097015495966001600160a01b03958616969495939460ff90931693919290911688565b604080519889526001600160a01b0397881660208a01528801959095526060870193909352901515608086015260a085015260c08401521660e082015261010001610214565b34801561042057600080fd5b506102c761042f3660046122de565b610e3c565b34801561044057600080fd5b506102c761044f36600461232a565b610eb2565b6102c76104623660046124d8565b610ecd565b34801561047357600080fd5b5061028f6104823660046124d8565b61105e565b34801561049357600080fd5b506102086104a23660046124d8565b600d6020526000908152604090205460ff1681565b3480156104c357600080fd5b506102fe6104d23660046122de565b6110be565b3480156104e357600080fd5b506102c76104f23660046122de565b611144565b34801561050357600080fd5b506102fe6105123660046124f0565b600e60209081526000928352604080842090915290825290205481565b34801561053b57600080fd5b506102c761054a366004612533565b6111c0565b34801561055b57600080fd5b506102626112af565b34801561057057600080fd5b506102c761057f366004612479565b6112be565b34801561059057600080fd5b506102c761059f3660046123de565b6113a4565b3480156105b057600080fd5b506102c76105bf3660046124d8565b6113af565b3480156105d057600080fd5b506102c76105df366004612533565b61141d565b3480156105f057600080fd5b506102c76105ff3660046122de565b6114af565b34801561061057600080fd5b506102c761061f366004612365565b611522565b34801561063057600080fd5b506102c761063f3660046124d8565b61155a565b34801561065057600080fd5b5061026261065f3660046124d8565b611687565b34801561067057600080fd5b506102c761067f3660046124d8565b611798565b34801561069057600080fd5b50600b5461028f906001600160a01b031681565b3480156106b057600080fd5b506102086106bf3660046122f8565b6001600160a01b03918216600090815260056020908152604080832093909416825291909152205460ff1690565b60006001600160e01b03198216632483248360e11b14806107125750610712826117f7565b92915050565b60606000805461072790612787565b80601f016020809104026020016040519081016040528092919081815260200182805461075390612787565b80156107a05780601f10610775576101008083540402835291602001916107a0565b820191906000526020600020905b81548152906001019060200180831161078357829003601f168201915b5050505050905090565b60006107b582611847565b506000908152600460205260409020546001600160a01b031690565b60006107dc8261105e565b9050806001600160a01b0316836001600160a01b0316141561084f5760405162461bcd60e51b815260206004820152602160248201527f4552433732313a20617070726f76616c20746f2063757272656e74206f776e656044820152603960f91b60648201526084015b60405180910390fd5b336001600160a01b038216148061086b575061086b81336106bf565b6108dd5760405162461bcd60e51b815260206004820152603d60248201527f4552433732313a20617070726f76652063616c6c6572206973206e6f7420746f60448201527f6b656e206f776e6572206f7220617070726f76656420666f7220616c6c0000006064820152608401610846565b6108e783836118a6565b505050565b6108f4611914565b6000818152600e60209081526040808320338452909152902054806109525760405162461bcd60e51b81526020600482015260146024820152734e6f2066756e647320746f20776974686472617760601b6044820152606401610846565b6000828152600e6020908152604080832033808552925280832083905551909183156108fc02918491818181858888f19350505050158015610998573d6000803e3d6000fd5b5060408051338152602081018390527feaff4b37086828766ad3268786972c0cd24259d4c87a80f9d3963a3c3d999b0d910160405180910390a1506109dd6001600755565b50565b60006109eb60085490565b905090565b6109f8611914565b600a546001600160a01b03163314610a525760405162461bcd60e51b815260206004820152601c60248201527f4f6e6c79206f776e65722063616e2072656c656173652066756e6473000000006044820152606401610846565b6000828152600d602052604090205460ff16610aa35760405162461bcd60e51b815260206004820152601060248201526f139195081b9bdd08185c1c1c9bdd995960821b6044820152606401610846565b6000610aae8361105e565b6000848152600c60205260408120600201549192506064610ad0600184612725565b610ada9190612705565b90506000606460095484610aee9190612725565b610af89190612705565b6000878152600c60205260409020600101549091506001600160a01b03858116911614610c1c57600081610b2c8486612744565b610b369190612744565b600b546000898152600c60205260409081902060010154905163c832055560e01b81526001600160a01b03918216600482015260248101879052929350169063c832055590604401600060405180830381600087803b158015610b9857600080fd5b505af1158015610bac573d6000803e3d6000fd5b5050600b5460405163c832055560e01b81526001600160a01b03898116600483015260248201869052909116925063c83205559150604401600060405180830381600087803b158015610bfe57600080fd5b505af1158015610c12573d6000803e3d6000fd5b5050505050610c92565b6000610c288285612744565b600b5460405163c832055560e01b81526001600160a01b0388811660048301526024820184905292935091169063c832055590604401600060405180830381600087803b158015610c7857600080fd5b505af1158015610c8c573d6000803e3d6000fd5b50505050505b600b54600a5460405163c832055560e01b81526001600160a01b0391821660048201526024810184905291169063c832055590604401600060405180830381600087803b158015610ce257600080fd5b505af1158015610cf6573d6000803e3d6000fd5b50505050610d0584868861196e565b50505050610d136001600755565b5050565b610d1f611914565b6000828152600c602052604090206003810154821115610d755760405162461bcd60e51b81526020600482015260116024820152704e6f7420656e6f7567682073686172657360781b6044820152606401610846565b6000816002015483610d879190612725565b905080341015610dd05760405162461bcd60e51b8152602060048201526014602482015273125b9cdd59999a58da595b9d081c185e5b595b9d60621b6044820152606401610846565b600b546040516001600160a01b039091169081903480156108fc02916000818181858888f19350505050158015610d05573d6000803e3d6000fd5b610e153382611ad2565b610e315760405162461bcd60e51b815260040161084690612609565b6108e783838361196e565b600a546001600160a01b03163314610e8e5760405162461bcd60e51b81526020600482015260156024820152744e6f7420746865204f776e6572206164647265737360581b6044820152606401610846565b6001600160a01b03166000908152600f60205260409020805460ff19166001179055565b6108e783838360405180602001604052806000815250611522565b6000818152600c60205260409020600581015460ff16610f275760405162461bcd60e51b815260206004820152601560248201527427232a1034b9903737ba1037b71030bab1ba34b7b760591b6044820152606401610846565b80600601544210610f6a5760405162461bcd60e51b815260206004820152600d60248201526c105d58dd1a5bdb88195b991959609a1b6044820152606401610846565b80600701543411610fab5760405162461bcd60e51b815260206004820152600b60248201526a42696420746f6f206c6f7760a81b6044820152606401610846565b60088101546001600160a01b031615610fff5760078101546000838152600e6020908152604080832060088601546001600160a01b0316845290915281208054909190610ff99084906126ed565b90915550505b6008810180546001600160a01b03191633908117909155346007830181905560408051928352602083019190915283917f0e54eff26401bf69b81b26f60bd85ef47f5d85275c1d268d84f68d6897431c47910160405180910390a25050565b6000818152600260205260408120546001600160a01b0316806107125760405162461bcd60e51b8152602060048201526018602482015277115490cdcc8c4e881a5b9d985b1a59081d1bdad95b88125160421b6044820152606401610846565b60006001600160a01b0382166111285760405162461bcd60e51b815260206004820152602960248201527f4552433732313a2061646472657373207a65726f206973206e6f7420612076616044820152683634b21037bbb732b960b91b6064820152608401610846565b506001600160a01b031660009081526003602052604090205490565b600a546001600160a01b0316331461119e5760405162461bcd60e51b815260206004820152601f60248201527f4f6e6c79206f776e65722063616e206368616e676520746865206f776e6572006044820152606401610846565b600a80546001600160a01b0319166001600160a01b0392909216919091179055565b6000838152600c602052604090206111d78461105e565b6001600160a01b0316336001600160a01b0316146112375760405162461bcd60e51b815260206004820152601c60248201527f4f6e6c79206f776e65722063616e2073746172742061756374696f6e000000006044820152606401610846565b60058101805460ff1916600117905561125082426126ed565b6006820155600781018390556008810180546001600160a01b0319169055604080518481526020810184905285917f44c53be110c6aa83aa83cd02e351ed172359268272ee1b5d31c0fe48db35c6c7910160405180910390a250505050565b60606001805461072790612787565b6112cc600880546001019055565b60006112d760085490565b90506112e33382611b50565b6112ed8185611cdb565b6000818152600c60209081526040808320848155600181018054336001600160a01b03199182168117909255600283018990556003830188905560058301805460ff199081169091556006840187905560078401879055600884018054909216909155818652600483018552838620889055868652600d9094528285208054909416909355905190928492917f4cc0a9c4a99ddc700de1af2c9f916a7cbfdb71f14801ccff94061ad1ef8a80409190a35050505050565b610d13338383611dad565b600a546001600160a01b031633146114025760405162461bcd60e51b81526020600482015260166024820152754f6e6c79206f776e65722063616e20617070726f766560501b6044820152606401610846565b6000908152600d60205260409020805460ff19166001179055565b6000838152600c602052604090206114348461105e565b6001600160a01b0316336001600160a01b0316146114945760405162461bcd60e51b815260206004820152601760248201527f4f6e6c79204e4654206f776e65722063616e206c6973740000000000000000006044820152606401610846565b60028101929092556003820155600501805460ff1916905550565b600a546001600160a01b031633146115015760405162461bcd60e51b81526020600482015260156024820152744e6f7420746865204f776e6572206164647265737360581b6044820152606401610846565b6001600160a01b03166000908152600f60205260409020805460ff19169055565b61152c3383611ad2565b6115485760405162461bcd60e51b815260040161084690612609565b61155484848484611e7c565b50505050565b611562611914565b6000818152600c6020526040902060068101544210156115b85760405162461bcd60e51b8152602060048201526011602482015270105d58dd1a5bdb881b9bdd08195b991959607a1b6044820152606401610846565b600581015460ff166116015760405162461bcd60e51b815260206004820152601260248201527141756374696f6e206e6f742061637469766560701b6044820152606401610846565b60058101805460ff19169055600881015460078201546001600160a01b039091169061163661162f8561105e565b838661196e565b604080516001600160a01b03841681526020810183905285917fd2aa34a4fdbbc6dff6a3e56f46e0f3ae2a31d7785ff3487aa5c95c642acea501910160405180910390a25050506109dd6001600755565b606061169282611847565b600082815260066020526040812080546116ab90612787565b80601f01602080910402602001604051908101604052809291908181526020018280546116d790612787565b80156117245780601f106116f957610100808354040283529160200191611724565b820191906000526020600020905b81548152906001019060200180831161170757829003601f168201915b50505050509050600061174260408051602081019091526000815290565b9050805160001415611755575092915050565b81511561178757808260405160200161176f92919061258a565b60405160208183030381529060405292505050919050565b61179084611eaf565b949350505050565b600a546001600160a01b031633146117f25760405162461bcd60e51b815260206004820152601d60248201527f4f6e6c79206f776e65722063616e206368616e676520746865206665650000006044820152606401610846565b600955565b60006001600160e01b031982166380ac58cd60e01b148061182857506001600160e01b03198216635b5e139f60e01b145b8061071257506301ffc9a760e01b6001600160e01b0319831614610712565b6000818152600260205260409020546001600160a01b03166109dd5760405162461bcd60e51b8152602060048201526018602482015277115490cdcc8c4e881a5b9d985b1a59081d1bdad95b88125160421b6044820152606401610846565b600081815260046020526040902080546001600160a01b0319166001600160a01b03841690811790915581906118db8261105e565b6001600160a01b03167f8c5be1e5ebec7d5bd14f71427d1e84f3dd0314c0f7b2291e5b200ac8c7c3b92560405160405180910390a45050565b600260075414156119675760405162461bcd60e51b815260206004820152601f60248201527f5265656e7472616e637947756172643a207265656e7472616e742063616c6c006044820152606401610846565b6002600755565b826001600160a01b03166119818261105e565b6001600160a01b0316146119a75760405162461bcd60e51b8152600401610846906126a8565b6001600160a01b038216611a095760405162461bcd60e51b8152602060048201526024808201527f4552433732313a207472616e7366657220746f20746865207a65726f206164646044820152637265737360e01b6064820152608401610846565b826001600160a01b0316611a1c8261105e565b6001600160a01b031614611a425760405162461bcd60e51b8152600401610846906126a8565b600081815260046020908152604080832080546001600160a01b03199081169091556001600160a01b0387811680865260038552838620805460001901905590871680865283862080546001019055868652600290945282852080549092168417909155905184937fddf252ad1be2c89b69c2b068fc378daa952ba7f163c4a11628f55a4df523b3ef91a4505050565b600080611ade8361105e565b9050806001600160a01b0316846001600160a01b03161480611b2557506001600160a01b0380821660009081526005602090815260408083209388168352929052205460ff165b806117905750836001600160a01b0316611b3e846107aa565b6001600160a01b031614949350505050565b6001600160a01b038216611ba65760405162461bcd60e51b815260206004820181905260248201527f4552433732313a206d696e7420746f20746865207a65726f20616464726573736044820152606401610846565b6000818152600260205260409020546001600160a01b031615611c0b5760405162461bcd60e51b815260206004820152601c60248201527f4552433732313a20746f6b656e20616c7265616479206d696e746564000000006044820152606401610846565b6000818152600260205260409020546001600160a01b031615611c705760405162461bcd60e51b815260206004820152601c60248201527f4552433732313a20746f6b656e20616c7265616479206d696e746564000000006044820152606401610846565b6001600160a01b038216600081815260036020908152604080832080546001019055848352600290915280822080546001600160a01b0319168417905551839291907fddf252ad1be2c89b69c2b068fc378daa952ba7f163c4a11628f55a4df523b3ef908290a45050565b6000828152600260205260409020546001600160a01b0316611d565760405162461bcd60e51b815260206004820152602e60248201527f45524337323155524953746f726167653a2055524920736574206f66206e6f6e60448201526d32bc34b9ba32b73a103a37b5b2b760911b6064820152608401610846565b60008281526006602090815260409091208251611d75928401906121b3565b506040518281527ff8e1a15aba9398e019f0b49df1a4fde98ee17ae345cb5f6b5e2c27f5033e8ce79060200160405180910390a15050565b816001600160a01b0316836001600160a01b03161415611e0f5760405162461bcd60e51b815260206004820152601960248201527f4552433732313a20617070726f766520746f2063616c6c6572000000000000006044820152606401610846565b6001600160a01b03838116600081815260056020908152604080832094871680845294825291829020805460ff191686151590811790915591519182527f17307eab39ab6107e8899845ad3d59bd9653f200f220920489ca2b5937696c31910160405180910390a3505050565b611e8784848461196e565b611e9384848484611f23565b6115545760405162461bcd60e51b815260040161084690612656565b6060611eba82611847565b6000611ed160408051602081019091526000815290565b90506000815111611ef15760405180602001604052806000815250611f1c565b80611efb84612030565b604051602001611f0c92919061258a565b6040516020818303038152906040525b9392505050565b60006001600160a01b0384163b1561202557604051630a85bd0160e11b81526001600160a01b0385169063150b7a0290611f679033908990889088906004016125b9565b602060405180830381600087803b158015611f8157600080fd5b505af1925050508015611fb1575060408051601f3d908101601f19168201909252611fae9181019061245d565b60015b61200b573d808015611fdf576040519150601f19603f3d011682016040523d82523d6000602084013e611fe4565b606091505b5080516120035760405162461bcd60e51b815260040161084690612656565b805181602001fd5b6001600160e01b031916630a85bd0160e11b149050611790565b506001949350505050565b6060600061203d836120db565b600101905060008167ffffffffffffffff81111561206b57634e487b7160e01b600052604160045260246000fd5b6040519080825280601f01601f191660200182016040528015612095576020820181803683370190505b5090508181016020015b600019016f181899199a1a9b1b9c1cb0b131b232b360811b600a86061a8153600a85049450846120ce576120d3565b61209f565b509392505050565b60008072184f03e93ff9f4daa797ed6e38ed64bf6a1f0160401b831061211a5772184f03e93ff9f4daa797ed6e38ed64bf6a1f0160401b830492506040015b6d04ee2d6d415b85acef81000000008310612146576d04ee2d6d415b85acef8100000000830492506020015b662386f26fc10000831061216457662386f26fc10000830492506010015b6305f5e100831061217c576305f5e100830492506008015b612710831061219057612710830492506004015b606483106121a2576064830492506002015b600a83106107125760010192915050565b8280546121bf90612787565b90600052602060002090601f0160209004810192826121e15760008555612227565b82601f106121fa57805160ff1916838001178555612227565b82800160010185558215612227579182015b8281111561222757825182559160200191906001019061220c565b50612233929150612237565b5090565b5b808211156122335760008155600101612238565b600067ffffffffffffffff80841115612267576122676127d8565b604051601f8501601f19908116603f0116810190828211818310171561228f5761228f6127d8565b816040528093508581528686860111156122a857600080fd5b858560208301376000602087830101525050509392505050565b80356001600160a01b03811681146122d957600080fd5b919050565b6000602082840312156122ef578081fd5b611f1c826122c2565b6000806040838503121561230a578081fd5b612313836122c2565b9150612321602084016122c2565b90509250929050565b60008060006060848603121561233e578081fd5b612347846122c2565b9250612355602085016122c2565b9150604084013590509250925092565b6000806000806080858703121561237a578081fd5b612383856122c2565b9350612391602086016122c2565b925060408501359150606085013567ffffffffffffffff8111156123b3578182fd5b8501601f810187136123c3578182fd5b6123d28782356020840161224c565b91505092959194509250565b600080604083850312156123f0578182fd5b6123f9836122c2565b91506020830135801515811461240d578182fd5b809150509250929050565b6000806040838503121561242a578182fd5b612433836122c2565b946020939093013593505050565b600060208284031215612452578081fd5b8135611f1c816127ee565b60006020828403121561246e578081fd5b8151611f1c816127ee565b60008060006060848603121561248d578283fd5b833567ffffffffffffffff8111156124a3578384fd5b8401601f810186136124b3578384fd5b6124c28682356020840161224c565b9660208601359650604090950135949350505050565b6000602082840312156124e9578081fd5b5035919050565b60008060408385031215612502578182fd5b82359150612321602084016122c2565b60008060408385031215612524578182fd5b50508035926020909101359150565b600080600060608486031215612547578283fd5b505081359360208301359350604090920135919050565b6000815180845261257681602086016020860161275b565b601f01601f19169290920160200192915050565b6000835161259c81846020880161275b565b8351908301906125b081836020880161275b565b01949350505050565b6001600160a01b03858116825284166020820152604081018390526080606082018190526000906125ec9083018461255e565b9695505050505050565b602081526000611f1c602083018461255e565b6020808252602d908201527f4552433732313a2063616c6c6572206973206e6f7420746f6b656e206f776e6560408201526c1c881bdc88185c1c1c9bdd9959609a1b606082015260800190565b60208082526032908201527f4552433732313a207472616e7366657220746f206e6f6e20455243373231526560408201527131b2b4bb32b91034b6b83632b6b2b73a32b960711b606082015260800190565b60208082526025908201527f4552433732313a207472616e736665722066726f6d20696e636f72726563742060408201526437bbb732b960d91b606082015260800190565b60008219821115612700576127006127c2565b500190565b60008261272057634e487b7160e01b81526012600452602481fd5b500490565b600081600019048311821515161561273f5761273f6127c2565b500290565b600082821015612756576127566127c2565b500390565b60005b8381101561277657818101518382015260200161275e565b838111156115545750506000910152565b600181811c9082168061279b57607f821691505b602082108114156127bc57634e487b7160e01b600052602260045260246000fd5b50919050565b634e487b7160e01b600052601160045260246000fd5b634e487b7160e01b600052604160045260246000fd5b6001600160e01b0319811681146109dd57600080fdfea2646970667358221220e3405ddc84079feee82b13b2ffd87458175a92e734fa5e15061491d45deee46864736f6c63430008040033",
    "linkReferences": {},
    "deployedLinkReferences": {}
}